:020000040800F2
:10000000A006002091010008990100089B0100084A
:100010009D0100089F010008A101000800000000E8
:10002000000000000000000000000000A301000824
:10003000A501000800000000A7010008A9010008B0
:10004000AB010008AB010008AB010008AB010008E0
:10005000AB010008AB010008AB010008AB010008D0
:10006000AB010008AB010008AB010008AB010008C0
:10007000AB010008AB010008AB010008AB010008B0
:10008000AB010008AB010008AB010008AB010008A0
:10009000AB010008AB010008AB010008AB01000890
:1000A000AB010008AB010008AB010008AB01000880
:1000B000AB010008AB010008AB010008AB01000870
:1000C000AB010008AB010008AB010008AB01000860
:1000D000AB010008750D0008AB010008AB0100087A
:1000E000AB010008AB010008AB01000800F002F80A
:1000F00000F03EF80AA090E8000C82448344AAF184
:100100000107DA4501D100F033F8AFF2090EBAE881
:100110000F0013F0010F18BFFB1A43F0010318473B
:100120005818000078180000103A24BF78C878C129
:10013000FAD8520724BF30C830C144BF04680C60ED
:10014000704700000023002400250026103A28BF35
:1001500078C1FBD8520728BF30C148BF0B60704739
:100160001FB59DE8030000F0EDF81FBD10B510BDF0
:1001700000F076F91146FFF7F3FF01F02BF800F0DD
:1001800094F903B4FFF7F2FF03BC00F0C1F90000DB
:100190000948804709480047FEE7FEE7FEE7FEE71B
:1001A000FEE7FEE7FEE7FEE7FEE7FEE70448054957
:1001B000054A064B7047000079090008ED00000869
:1001C000A0000020A0060020A0020020A002002025
:1001D00070B5064600F09AF8056806F10B0020F0AD
:1001E0000704B4429CBF002070BD2B466A68BAB1B8
:1001F0001068A04210D304F1080188423CBF506847
:10020000586007D35168101941601168091B0160DB
:1002100058601460101D70BD13465268002AE7D163
:100220002146284600F07AF80028DED170BD70B56E
:100230000446051F00F06AF80068002C14BF4468EB
:1002400070BD002C18BFAC423CBF20466468F8D398
:1002500001680A18AA4218BF456003D12A680546FA
:100260001144016028684119A1421CBF6C6070BD37
:100270006168696021680844286070BD032A40F203
:10028000308010F0030C00F0158011F8013BBCF138
:10029000020F624498BF11F801CB00F8013B38BF50
:1002A00011F8013BA2F1040298BF00F801CB38BF5E
:1002B00000F8013B11F0030300F07A80083AC0F027
:1002C000088051F8043B083A51F804CBA0E8081024
:1002D000F5E7121D5CBF51F8043B40F8043BAFF357
:1002E0000080D20724BF11F8013B11F801CB48BFB1
:1002F00011F8012B24BF00F8013B00F801CB48BFE7
:1003000000F8012B704770477047704700487047EE
:1003100048000020704770477047704738B5044662
:100320000A4600206946AFF30080002808BF38BDA8
:1003300002460099204600F071F8012038BD0120E6
:1003400000F086B8F8B5AFF30080054600200C46F3
:10035000102000BF0646A819A0420DD932466946B2
:100360000020AFF30080070008BF00F071F800988C
:10037000A04218BF0546C419FFF7C8FF056007462D
:10038000F01D20F007004619284600F00AF8B44294
:1003900008BFF8BDA21B31463868BDE8F84000F040
:1003A0003DB800210160C0E901107047102070477E
:1003B00010B5203AC0F00B80B1E81850203AA0E800
:1003C0001850B1E81850A0E81850BFF4F5AF5FEA34
:1003D000027C24BFB1E81850A0E8185044BF18C9E7
:1003E00018C0BDE810405FEA827C24BF51F8043B8E
:1003F00040F8043B08BF7047D20728BF31F8023BE2
:1004000048BF11F8012B28BF20F8023B48BF00F875
:10041000012B7047004870474000002003464068A9
:100420008C46002818BF88423CBF03464068F8D37A
:1004300018681844884207D00CF1030020F0070028
:10044000001D411A521A0146081D0A60FFF7EFBE4F
:1004500010B500F035F8BDE8104000F02CB870473A
:100460007546FFF7D7FFAE4605006946534620F0B4
:100470000700854618B020B5FFF798FEBDE820407C
:100480004FF000064FF000074FF000084FF0000B50
:1004900021F00701AC46ACE8C009ACE8C009ACE803
:1004A000C009ACE8C0098D4670470446AFF3008030
:1004B0002046FFF766FE002801D000F029B87047FB
:1004C00010B5012805D0002103A000F027F8012075
:1004D00010BD09A1F8E7000053494752544D454D5E
:1004E0003A204F7574206F662068656170206D65D5
:1004F0006D6F7279000000003A2048656170206DD0
:10050000656D6F727920636F7272757074656400C7
:1005100001491820ABBEFEE72600020070B5054673
:100520000C460A2000E06D1C00F011F835B1287867
:100530000028F8D102E0641C00F009F814B120781A
:100540000028F8D1BDE870400A20AFF3008008B55C
:1005500069468DF800000320ABBE08BD2DE9F041CF
:10056000024600250026002000230024002791F8E1
:1005700003C00CF00F0591F803C00CF0100CBCF197
:10058000000F03D091F802C04CEA050591F800C0B5
:10059000BCF1000F31D0146800202BE04FF0010CAB
:1005A0000CFA00F3B1F800C00CEA03069E4220D119
:1005B00083004FF00F0C0CFA03F7BC4305FA03FC61
:1005C0004CEA040491F803C0BCF1280F06D14FF0A7
:1005D000010C0CFA00FCC2F814C00AE091F803C048
:1005E000BCF1480F05D14FF0010C0CFA00FCC2F829
:1005F00010C0401C0828D1D31460B1F800C0BCF171
:10060000FF0F34DD546800202EE000F1080C4FF09D
:10061000010808FA0CF3B1F800C00CEA03069E4288
:1006200021D183004FF00F0C0CFA03F7BC4305FAFD
:1006300003FC4CEA040491F803C0BCF1280F05D177
:1006400000F1080C08FA0CF8C2F8148091F803C005
:10065000BCF1480F07D100F1080C4FF0010808FA6F
:100660000CF8C2F81080401C0828CED35460BDE8B6
:10067000F0810000F0B50A46002300240021002587
:1006800000F00046B6F1004F02D11D4EF16901E0C5
:100690001B4E7168C0F3034583B200F44016B6F5F3
:1006A000401F08D121F07061154E766826F0706603
:1006B000134F7E6012E000F48016B6F5801F06D15D
:1006C000032606FA05F4A14341F0706106E0460DE9
:1006D000360103FA06F6B14341F0706122B1460DCE
:1006E000360103FA06F6314300F00046B6F1004F3A
:1006F00002D1034EF16101E0014E7160F0BD0000D6
:1007000000000140416170470161704770B50021F0
:1007100000230F22C47804B3154C246804F4E06469
:10072000C4F5E064210AC1F10403CA40447804FA24
:1007300003F184781440214309010E4C0678A15539
:10074000047804F01F050124AC4005786D11AD005C
:1007500005F1E025C5F8004109E0047804F01F0523
:100760000124AC40044D0678761145F8264070BD52
:100770000CED00E000E400E080E100E029B1064A71
:10078000D2690243044BDA6104E0034AD26982432E
:10079000014BDA61704700000010024029B1064A9F
:1007A00092690243044B9A6104E0034A92698243CE
:1007B000014B9A61704700000010024030B50021E3
:1007C0000022002400232D4D6D6805F00C0121B19D
:1007D000042905D0082923D105E0294D056022E030
:1007E000274D05601FE0254D6D6805F47012234DFF
:1007F0006D6805F48034022505EB92421CB9214D49
:10080000554305600BE01D4D6D6805F400351DB1C5
:100810001C4D5543056002E0194D5543056002E04B
:10082000174D056000BF00BF144D6D6805F0F00165
:100830000909154D6B5C0568DD4045600F4D6D681D
:1008400005F4E061090A104D6B5C4568DD40856088
:100850000A4D6D6805F46051C90A0B4D6B5C456823
:10086000DD40C560054D6D6805F44041890B074DBD
:100870006B5CC568B5FBF3F5056130BD0010024047
:1008800000127A0000093D002C0000203C000020EE
:1008900010B500F001F810BD0CB5002001900090DB
:1008A0003348006840F480303149086000BF304868
:1008B000006800F4003000900198401C01900098FE
:1008C00018B90198B0F5A06FF1D12948006800F47B
:1008D000003010B10120009001E00020009000984D
:1008E000012843D12348006840F0100021490860E6
:1008F0000846006820F0030008600846006840F0E1
:10090000020008601A484068194948600846406873
:1009100048600846406840F4806048600846406887
:1009200020F47C1048600846406840F4E8104860B5
:100930000846006840F08070086000BF0C480068FE
:1009400000F000700028F9D00948406820F003004A
:10095000074948600846406840F00200486000BF10
:100960000348406800F00C000828F9D10CBD0000D5
:10097000001002400020024010B51348006840F00B
:1009800001001149086008464068104908400E49B6
:100990004860084600680E4908400B490860084650
:1009A000006820F4802008600846406820F4FE00BB
:1009B00048604FF41F008860FFF76AFF4FF0006047
:1009C0000449086010BD0000001002400000FFF85C
:1009D000FFFFF6FE08ED00E021B1028842F0800240
:1009E000028004E002884FF67F731A40028070474D
:1009F00021B1028842F00102028004E002884FF631
:100A0000FE731A400280704770B500240022002354
:100A1000058C4FF6FE7635400584028C8388048B66
:100A20004FF68F752C40B51E2C400D882C43751E3B
:100A30002A400D892A434D882A43144DA8420BD0E1
:100A4000134DA84208D0134DA84205D0124DA8421C
:100A500002D0124DA84213D14FF6F7752A404D89A6
:100A60002A434FF6FB752A408D882A434FF6FF65CF
:100A70002B404FF6FF552B408D892B43CD892B43BF
:100A800083800483CD888586028470BD002C01405C
:100A90000034014000400140004401400048014052
:100AA0000A460021018B4FF6F77319401143018369
:100AB0007047000070B5002400220023058C4FF61B
:100AC000EF7635400584028C8388048B48F6FF75E9
:100AD0002C404FF6FF452C400D884FF6FF7606EA76
:100AE00005252C434FF6DF752A400D8906EA0515CA
:100AF0002A434D8806EA05152A43154DA84202D01F
:100B0000144DA8421DD14FF67F752A404D894FF6EE
:100B1000FF7606EA05152A434FF6BF752A408D88F1
:100B200006EA05152A434FF6FF352B404FF2FF75B5
:100B30002B408D8906EA85052B43CD8906EA85057C
:100B40002B4383800483CD880587028470BD000019
:100B5000002C0140003401400A460021018B4FF275
:100B6000FF7319404FF6FF7303EA02231943018311
:100B70007047000070B5002400220023058C4FF65A
:100B8000FF6635400584028C8388848B4FF68F7511
:100B90002C404FF6FC752C400D882C434FF6FF552A
:100BA0002A400D894FF6FF7606EA05252A434D882F
:100BB00006EA05252A43154DA84202D0144DA84245
:100BC0001DD14FF2FF752A404D894FF6FF7606EA98
:100BD00005252A434FF6FF352A408D8806EA05256C
:100BE0002A434EF6FF752B404DF6FF752B408D893D
:100BF00006EA05152B43CD8906EA05152B438380AC
:100C00008483CD888587028470BD0000002C01405C
:100C1000003401400A460021818B4FF6F7731940DA
:100C2000114381837047000070B500220023002427
:100C3000058C4EF6FF7635400584038C8488828BC4
:100C400048F6FF752A404FF6FF452A400D884FF6BB
:100C5000FF7606EA05252A434DF6FF752B400D89E0
:100C600006EA05352B434D8806EA05352B430B4D27
:100C7000A84202D00A4DA84208D14BF6FF752C407D
:100C80008D894FF6FF7606EA85152C438480828392
:100C9000CD88A0F84050038470BD0000002C0140B6
:100CA000003401400A460021818B4FF2FF73194046
:100CB0004FF6FF7303EA022319438183704781864D
:100CC00070470187704781877047A0F840107047D0
:100CD000002202881D4B98420ED01D4B98420BD02B
:100CE000B0F1804F08D01B4B984205D01A4B984268
:100CF00002D01A4B984204D14FF68F731A404B889A
:100D00001A43174B984207D0164B984204D04FF61F
:100D1000FF431A40CB881A4302808B8883850B8857
:100D200003850A4B98420BD0094B984208D00E4BD2
:100D3000984205D00D4B984202D00D4B984201D1FC
:100D40000B7A03860123838270470000002C014048
:100D5000003401400004004000080040000C004046
:100D600000100040001400400040014000440140D9
:100D70000048014010B540F225510B4800F031F811
:100D800030B100F071FC40F22551074800F00EF838
:100D900040F22441044800F024F820B102490888B8
:100DA000091D088800BF10BD0038014010B50022A1
:100DB000002340F66A14A14200D100BF0A120124A8
:100DC0009440A3B2DC43048010BD21B1828942F477
:100DD0000052828104E082894DF6FF731A408281BD
:100DE000704702460020B1F5007F00D100BF138894
:100DF0000B400BB1012000E000207047F0B5034626
:100E0000002400260025002040F66A17B94200D1D0
:100E100000BF1846C1F3421401F01F06012707FA6C
:100E200006F5012C01D10C3004E0022C01D1103068
:100E300000E014301AB107682F43076002E007682A
:100E4000AF430760F0BD00002DE9F04786B00546CE
:100E50000E460024A24600BFA1460027B08900B17B
:100E600000BF2F462C8A4CF6FF700440F0880443E4
:100E70002C82AC894EF6F3100440B08831890843C7
:100E8000718908430443AC81AC8A4FF6FF400440AB
:100E9000B0890443AC8201A8FFF790FC1F48874249
:100EA00002D1DDF810A001E0DDF80CA0A88900F463
:100EB000004040B10AEBCA0000EB0A10316849005B
:100EC000B0FBF1F807E00AEBCA0000EB0A1031684A
:100ED0008900B0FBF1F86420B8FBF0F004012009B0
:100EE000642101FB1089A88900F4004040B1322040
:100EF00000EBC900B0FBF1F000F00700044308E08C
:100F0000322000EB09106421B0FBF1F000F00F007B
:100F100004432C8106B0BDE8F08700000038014092
:100F200001468888C0F308007047C1F30802828038
:100F30007047000070B5044600250EE020210848E7
:100F4000FFF7E2FB012000F025F920210448FFF71C
:100F5000D9FB012000F01EF96D1CA542EEDB70BD2F
:100F6000000C01402DE9F04704460F46904600264C
:100F70000025601E794951F8209051F82000B842B0
:100F800004DC601E51F82000381A04E0601E73492A
:100F900051F82000C01B0546142095FBF0F5072CE6
:100FA00028D2DFE804F0D704284BB4916E00002665
:100FB0001EE0A7EB090090FBF5F1601E674A52F8AE
:100FC00020000144601E42F820101FFA81FA5146A9
:100FD0004FF08040FFF775FE08EBC80101EB0811E8
:100FE0004FF47A72A2EB810188B200F0D3F8761C3C
:100FF000AE42DEDBAEE000261DE0A7EB090090FB71
:10100000F5F1601E554A52F820000144601E42F876
:1010100020101FFA81FA51465148FFF754FE08EBA1
:10102000C80101EB08114FF47A72A2EB810188B27A
:1010300000F0B0F8761CAE42DFDB8BE000261DE04E
:10104000A7EB090090FBF5F1601E444A52F820001E
:101050000144601E42F820101FFA81FA51464048B0
:10106000FFF733FE08EBC80101EB08114FF47A7269
:10107000A2EB810188B200F08DF8761CAE42DFDB76
:1010800068E000261DE0A7EB090090FBF5F1601E6B
:10109000324A52F820000144601E42F820101FFA24
:1010A00081FA51462F48FFF70AFE08EBC80101EB11
:1010B00008114FF47A72A2EB810188B200F06AF84D
:1010C000761CAE42DFDB45E000261DE0A7EB090001
:1010D00090FBF5F1601E214A52F820000144601E89
:1010E00042F820101FFA81FA51461D48FFF7E9FD2A
:1010F00008EBC80101EB08114FF47A72A2EB8101F1
:1011000088B200F047F8761CAE42DFDB22E0002612
:101110001DE0A7EB090090FBF5F1601E0F4A52F8A5
:1011200020000144601E42F820101FFA81FA514647
:101130000B48FFF7C4FD08EBC80101EB08114FF4A1
:101140007A72A2EB810188B200F024F8761CAE42DC
:10115000DFDB00BF00BFBDE8F08700001400002007
:10116000000800400004004030B502460B46002055
:10117000002109E0545C84EA2024054D35F8144030
:1011800084EA0024A0B2491C9942F3DB30BD000080
:101190006C17000815E000214FF0E02211610C49A6
:1011A0005161002191610521116100BF4FF0E021E3
:1011B000096901F480310029F8D000214FF0E022C4
:1011C00011610100A0F1010290B2E4D1704700006A
:1011D0003F1901000EB5164A07CA8DE807000B201B
:1011E000FEF7F6FF044600F0D5F900F0E9F900F04B
:1011F000A1F800F0FBF800F055F90020207006205F
:10120000607005206080009860609DF80400207286
:101210004FF400510748FFF777FA07E006480068E7
:10122000012803D10548006800F00AF8F6E700003D
:101230006C190008000C0140100000200400002080
:101240002DE9F04104466088011D2046FFF78CFF20
:10125000074600266088401C211D085C46EA0026DF
:101260006188201D405C0643B74238D16078012870
:101270000FDB607806280CDC607807226168FFF7D6
:1012800071FE6088801D81B21948006800F034F852
:1012900025E06078072814D1002508E0681E820048
:1012A000201D815807222846FFF75CFE6D1C062D85
:1012B000F4DD6088801D81B20D48006800F01CF8E4
:1012C0000DE0607808280AD14FF49670FFF732FEDF
:1012D0006088801D81B20648006800F00DF8204645
:1012E000FEF7A5FF002003490860BDE8F08100007B
:1012F000040000201000002070B505460E460024B2
:1013000000BF04E0285D00F005F8601C84B2B44220
:10131000F8DB70BD10B5044621460548FFF705FE11
:1013200000BF80210248FFF75CFD0028F9D010BD06
:101330000038014000B589B001210846FFF71EFAC8
:1013400001210920FFF72AFA01212548FFF792F928
:1013500001212448FFF78EF90820ADF80400182079
:101360008DF8070003208DF8060001A91E48FFF73D
:10137000F5F844F61F60ADF81C004720ADF81800E2
:101380000020ADF81E00ADF81A0006A94FF080400D
:10139000FFF79EFC6020ADF808000120ADF80A00C0
:1013A00040F2DC50ADF80E000020ADF8100002A9AC
:1013B0004FF08040FFF77EFB0821C806FFF7CCFB0B
:1013C00001218807FFF708FB01218807FFF710FBC1
:1013D00040F2DC514FF08040FFF773FC09B000BDD4
:1013E0000002300000031800000C014000B589B075
:1013F00001210220FFF7C2F901210920FFF7CEF9F0
:1014000001212448FFF736F901212348FFF732F97B
:101410001020ADF8040018208DF8070003208DF887
:10142000060001A91D48FFF799F844F61F60ADF8C2
:101430001C004720ADF818000020ADF81E00ADF8E4
:101440001A0006A91648FFF743FC6020ADF8080013
:101450000120ADF80A0040F2DC50ADF80E0000208B
:10146000ADF8100002A90E48FFF7CEFA08210C488B
:10147000FFF716FB01210A48FFF7AEFA01210848E1
:10148000FFF7B6FA40F2DC510548FFF718FC09B047
:1014900000BD00000002300000081A00000C0140EE
:1014A0000004004000B589B001210420FFF766F96F
:1014B00001210920FFF772F94FF47070ADF80400B4
:1014C00018208DF8070003208DF8060001A92F4889
:1014D000FFF744F844F61F60ADF81C004720ADF854
:1014E00018000020ADF81E00ADF81A0006A9284823
:1014F000FFF7EEFB6020ADF808000120ADF80A0010
:1015000040F2DC50ADF80E000020ADF8100002A94A
:101510001F48FFF779FA02A91D48FFF7CBFA02A985
:101520001B48FFF727FB02A91948FFF77DFB08219D
:101530001748FFF7B5FA08211548FFF70DFB0821FA
:101540001348FFF767FB08211148FFF7ABFB0121A8
:101550000F48FFF741FA01210D48FFF749FA40F221
:10156000DC510B48FFF7ABFB40F2DC510848FFF7BA
:10157000A8FB40F2DC510648FFF7A5FB40F2DC5126
:101580000348FFF7A2FB09B000BD0000000C0140BA
:101590000008004008B501210820FFF7FFF842F2DB
:1015A0002000ADF8000003208DF8020010208DF817
:1015B000030069460148FEF7D1FF08BD000C014059
:1015C00000B587B001210520FFF7E8F80121880365
:1015D000FFF7E4F84FF48060ADF8180004208DF8B0
:1015E0001B0006A91E48FEF7B9FF4FF40070ADF8C6
:1015F000180003208DF81A0018208DF81B0006A98A
:101600001748FEF7ABFF4FF4E13002900020ADF831
:101610000C00ADF80E00ADF81000ADF814000C2071
:10162000ADF8120002A90F48FFF70EFC25208DF837
:10163000040000208DF805008DF8060001208DF8CB
:10164000070001A8FFF762F8012240F22551054882
:10165000FFF7D4FB01210348FFF7B7FB07B000BD3C
:10166000000801400038014038B5002400200090F7
:101670003848FFF755FCC0B2009037480468374837
:101680000068401CFEF7A4FD33490860334821463A
:10169000026831480068FEF7F1FD1CB12046FEF7F4
:1016A000C6FD00242C4800682C49096808449DF8B0
:1016B0000010017029480068401C2849086008464D
:1016C0000068042808DB2648006828B9224800681A
:1016D0004088801D22490860204800682049096828
:1016E000884235DB1E48006890B300251C4800681E
:1016F000FEF76EFD1B49086019480268164801682C
:1017000018480068FEF7BAFD1448006814490968D3
:10171000401A124908601048056808460068FEF73C
:1017200057FD0D4908600E48006829180B480268EB
:1017300009480068FEF7A2FD1DB12846FEF777FDB7
:10174000002501200849086000200549086000BF05
:1017500038BD0000003801400000002008000020D3
:101760000C000020040000201000002000002110C8
:10177000422063308440A550C660E77008812991FB
:101780004AA16BB18CC1ADD1CEE1EFF131121002A3
:1017900073325222B5529442F772D662399318834B
:1017A0007BB35AA3BDD39CC3FFF3DEE3622443346F
:1017B00020040114E664C774A44485546AA54BB59B
:1017C00028850995EEE5CFF5ACC58DD55336722643
:1017D00011163006D776F6669556B4465BB77AA7EB
:1017E00019973887DFF7FEE79DD7BCC7C448E5588F
:1017F0008668A7784008611802282338CCC9EDD93B
:101800008EE9AFF9488969990AA92BB9F55AD44AE2
:10181000B77A966A711A500A333A122AFDDBDCCB8A
:10182000BFFB9EEB799B588B3BBB1AABA66C877CAE
:10183000E44CC55C222C033C600C411CAEED8FFDDA
:10184000ECCDCDDD2AAD0BBD688D499D977EB66E82
:10185000D55EF44E133E322E511E700E9FFFBEEF2A
:10186000DDDFFCCF1BBF3AAF599F788F8891A981EC
:10187000CAB1EBA10CD12DC14EF16FE18010A100D6
:10188000C230E3200450254046706760B9839893C6
:10189000FBA3DAB33DC31CD37FE35EF3B102901226
:1018A000F322D2323542145277625672EAB5CBA592
:1018B000A89589856EF54FE52CD50DC5E234C32476
:1018C000A01481046674476424540544DBA7FAB766
:1018D0009987B8975FE77EF71DC73CD7D326F236C6
:1018E0009106B01657667676154634564CD96DC9B2
:1018F0000EF92FE9C899E9898AB9ABA94458654816
:1019000006782768C018E1088238A3287DCB5CDB05
:101910003FEB1EFBF98BD89BBBAB9ABB754A545A65
:10192000376A167AF10AD01AB32A923A2EFD0FEDD1
:101930006CDD4DCDAABD8BADE89DC98D267C076CB5
:10194000645C454CA23C832CE01CC10C1FEF3EFFA5
:101950005DCF7CDF9BAFBABFD98FF89F176E367E05
:10196000554E745E932EB23ED10EF01E1234567850
:101970009A000000000000009819000800000020F4
:101980004000000028010008D8190008400000208D
:101990006006000044010008000000000000000094
:1019A000000000000000000000000000DC05000056
:1019B000DC050000DC050000DC050000DC050000A3
:1019C000DC05000000000000010203040102030422
:0819D0000607080902040608DD
:04000005080000ED02
:00000001FF
